:100000000C945D000C9485000C9485000C94850084
:100010000C9485000C9485000C9485000C9485004C
:100020000C9485000C9485000C9485000C9485003C
:100030000C9485000C9485000C9485000C9485002C
:100040000C94FA020C9485000C94C8020C94A20241
:100050000C9485000C9485000C9485000C9485000C
:100060000C9485000C94850000000008000201003B
:100070000003040700000000000000000000000072
:10008000250028002B0000000000240027002A0083
:10009000040404040404040402020202020203032E
:1000A0000303030301020408102040800102040836
:1000B0001020010204081020440311241FBECFEFBA
:1000C000D8E0DEBFCDBF11E0A0E0B1E0E2E8FCE0A7
:1000D00002C005900D92AA31B107D9F722E0AAE13A
:1000E000B1E001C01D92AA35B207E1F710E0CDE5FD
:1000F000D0E004C02197FE010E943406CC35D10720
:10010000C9F70E949E030C943F060C94000090E0F7
:10011000FC01EC55FF4F2491FC01E057FF4F849107
:10012000882399F090E0880F991FFC01EA57FF4F50
:10013000A591B491FC01E458FF4F859194918FB73C
:10014000F894EC91E22BEC938FBF0895CF92DF925D
:10015000EF92FF920F931F93CF93DF936C017A017D
:100160008B01C0E0D0E0CE15DF0589F0D8016D919C
:100170008D01D601ED91FC910190F081E02DC60139
:100180000995892B11F47E0102C02196ECCFC7019D
:10019000DF91CF911F910F91FF90EF90DF90CF9063
:1001A0000895089580E090E00895FC01538D448DFA
:1001B000252F30E0842F90E0821B930B541710F012
:1001C000CF96089501970895FC01918D828D98171F
:1001D00061F0828DDF01A80FB11D5D968C91928D2B
:1001E0009F5F9F73928F90E008958FEF9FEF089528
:1001F000FC01918D828D981731F0828DE80FF11DF1
:10020000858D90E008958FEF9FEF0895FC01918D0B
:10021000228D892F90E0805C9F4F821B91098F7304
:100220009927089583E291E00E94060121E0892B3D
:1002300009F420E0822F0895FC01848DDF01A80FCE
:10024000B11DA35ABF4F2C91848D90E001968F73FE
:100250009927848FA689B7892C93A089B1898C911D
:1002600080648C93938D848D981306C00288F389E3
:10027000E02D80818F7D80830895EF92FF920F9310
:100280001F93CF93DF93EC0181E0888F9B8D8C8D42
:10029000981305C0E889F989808185FD24C0F62E70
:1002A0000B8D10E00F5F1F4F0F731127E02E8C8D09
:1002B000E8120CC00FB607FCFACFE889F9898081F3
:1002C00085FFF5CFCE010E941C01F1CF8B8DFE0181
:1002D000E80FF11DE35AFF4FF0820B8FEA89FB898B
:1002E0008081806207C0EE89FF896083E889F9898F
:1002F00080818064808381E090E0DF91CF911F91C5
:100300000F91FF90EF900895CF93DF93EC01888DCC
:100310008823C9F0EA89FB89808185FD05C0A88909
:10032000B9898C9186FD0FC00FB607FCF5CF80818F
:1003300085FFF2CFA889B9898C9185FFEDCFCE01D9
:100340000E941C01E7CFDF91CF91089580E090E0FB
:10035000892B29F00E94120181110C94000008954C
:1003600090E0FC01E859FF4F3491FC01EC55FF4F40
:100370002491FC01E057FF4FE491EE2309F43BC0C8
:10038000332339F1333091F038F43130A9F0323081
:1003900001F584B58F7D12C0373091F03830A1F06F
:1003A0003430B9F4809180008F7D03C0809180004B
:1003B0008F77809380000DC084B58F7784BD09C08E
:1003C0008091B0008F7703C08091B0008F7D8093C3
:1003D000B000F0E0EE0FFF1FE458FF4FA591B4917D
:1003E0008FB7F894EC91611103C020952E2301C0C2
:1003F0002E2B2C938FBF08953FB7F89480911F0147
:1004000090912001A0912101B091220126B5A89BD5
:1004100005C02F3F19F00196A11DB11D3FBFBA2F96
:10042000A92F982F8827820F911DA11DB11DBC01F6
:10043000CD0142E0660F771F881F991F4A95D1F7BB
:1004400008958F929F92AF92BF92CF92DF92EF92D8
:10045000FF926B017C010E94FC014B015C01C11405
:10046000D104E104F104F1F00E94FC01DC01CB01B4
:1004700088199909AA09BB09883E9340A105B105CD
:1004800070F321E0C21AD108E108F10888EE880E65
:1004900083E0981EA11CB11CC114D104E104F10435
:1004A00019F7DDCFFF90EF90DF90CF90BF90AF9026
:1004B0009F908F900895CF93DC011696CC9116975C
:1004C000ED91FC910280F381E02D0995C150C81B8C
:1004D0008C2FCF9108958BE00895BF92CF92DF9239
:1004E000EF92FF920F931F93CF93DF93B82E8B0160
:1004F000C0E0D0E06A01550FEE08FF08C017D10731
:10050000ACF461E08B2D0E94B001C701B6010E94DE
:10051000210260E08B2D0E94B0012196C017D10707
:100520006CF7C701B6010E942102E8CFDF91CF919D
:100530001F910F91FF90EF90DF90CF90BF900895A3
:100540000E943A061F920F920FB60F9211242F931A
:100550003F934F935F936F937F938F939F93AF934B
:10056000BF93EF93FF9383E291E00E941C01FF9100
:10057000EF91BF91AF919F918F917F916F915F911B
:100580004F913F912F910F900FBE0F901F90189594
:100590001F920F920FB60F9211242F938F939F9358
:1005A000EF93FF93E0913301F09134018081E0916A
:1005B0003901F0913A0182FD12C0908180913C0195
:1005C0008F5F8F7320913D01821751F0E0913C01C4
:1005D000F0E0ED5DFE4F958F80933C0101C080817E
:1005E000FF91EF919F918F912F910F900FBE0F90E0
:1005F0001F9018951F920F920FB60F9211242F93F0
:100600003F938F939F93AF93BF9380911B019091E2
:100610001C01A0911D01B0911E0130911A0123E02F
:10062000230F2D3720F40196A11DB11D05C026E82A
:10063000230F0296A11DB11D20931A0180931B0167
:1006400090931C01A0931D01B0931E0180911F0186
:1006500090912001A0912101B09122010196A11D4C
:10066000B11D80931F0190932001A0932101B093AD
:100670002201BF91AF919F918F913F912F910F9048
:100680000FBE0F901F901895E3E2F1E013821282E3
:1006900088EE93E0A0E0B0E084839583A683B783DF
:1006A00084E091E09183808385EC90E09587848756
:1006B00084EC90E09787868780EC90E0918B808B2C
:1006C00081EC90E0938B828B82EC90E0958B848B15
:1006D00086EC90E0978B868B118E128E138E148E83
:1006E000ACEDB1E01A961C921A9719961C921997C4
:1006F0001C961C921C971D961C921D9717961C9277
:10070000179718961C92189715961C9215978AEEB3
:1007100091E08D939C93F0935902E0935802E9EC99
:10072000F1E086E191E0918380831386148615863B
:1007300016861786108A118A128A0895789484B5CD
:10074000826084BD84B5816084BD85B5826085BDCD
:1007500085B5816085BD80916E00816080936E005B
:10076000109281008091810082608093810080914D
:1007700081008160809381008091800081608093FE
:1007800080008091B10084608093B1008091B000BE
:1007900081608093B00080917A00846080937A00B9
:1007A00080917A00826080937A0080917A008160E3
:1007B00080937A0080917A00806880937A0010920A
:1007C000C1008DE00E9487008DE00E9487008DE0CF
:1007D0000E948700E0913301F091340182E0808330
:1007E000E0912F01F09130011082E0913101F09100
:1007F00032018FEC808310923B01E0913701F09140
:10080000380186E08083E0913501F09136018081E6
:1008100080618083E0913501F091360180818860AC
:100820008083E0913501F09136018081806880837A
:10083000E0913501F091360180818F7D808383E2E4
:1008400091E0909359028093580242E350E063E0B4
:1008500070E08DE090E00E946D0200E252E0F52E23
:1008600011E063E0E62E74E0D72EC5E7D0E080917A
:10087000E3018111E4C18091E4018111E0C102C072
:100880001093E5018091580290915902DC01ED919D
:10089000FC910084F185E02D0995892B09F4A2C013
:1008A0008091580290915902DC01ED91FC910284F3
:1008B000F385E02D09958093E7019091E601992356
:1008C00011F18E3719F4E092E4018CC08D37D9F420
:1008D0008091580290915902DC01ED91FC910084C5
:1008E000F185E02D0995892B59F28091580290915C
:1008F0005902DC01ED91FC910284F385E02D09950C
:1009000080278093E7018091E501882339F0809169
:10091000E70180278093E7011092E5018091E601CD
:10092000833038F02091E7019091E801920F909385
:10093000E8018130A1F058F08230C1F08330E9F451
:100940008091E7018093DE01D092E6019BCF8091F8
:10095000E7018E3709F096CF1093E60193CF80918F
:10096000E7018093DF01F092E6018CCF8091E701EF
:100970008093E001E092E60185CF8F3618F0F09287
:10098000E40130C0282F30E04091E00150E04D5F9D
:100990005F4F24173507A9F49091E8019F3F49F470
:1009A0009091E7019093E1011093E3011092E4012B
:1009B00002C01093E40184508093E2011092E6019A
:1009C00011C08091E701E091DC01F091DD012E0F73
:1009D0003F1FF901349780838091E6018F5F8093F8
:1009E000E60150CF8091E301882309F425C180916D
:1009F000DE01803909F0EAC0E091DC01F091DD010F
:100A0000F093CC01E093CB018093CD011093D20100
:100A10008091E1018093D0018091E4018093D30122
:100A20008091E2018093D1018091DF018093CE011A
:100A30008091E0018093CF01808190E0A0E0B0E060
:100A4000782F6627552744279181892F90E0A0E0D1
:100A5000B0E0DC0199278827840F951FA61FB71FD8
:100A60002381820F911DA11DB11D228130E0322F03
:100A70002227820F931FA11DB11D8093D401909353
:100A8000D501A093D601B093D701848190E0A0E076
:100A9000B0E0782F6627552744279581892F90E06D
:100AA000A0E0B0E0DC0199278827840F951FA61FDE
:100AB000B71F2781820F911DA11DB11D268130E036
:100AC000322F2227820F931FA11DB11D8093D801C1
:100AD0009093D901A093DA01B093DB018285813034
:100AE00029F44AE050E06AE070E004C044E150E0DC
:100AF00062E070E08DE090E00E946D02A090CB017A
:100B0000B090CC01E091C901F091CA010280F3815B
:100B1000E02D89EC91E00995F501E80FF11DC08009
:100B2000AC2CB12C8DE00E948700A114B10411F40B
:100B300060E005C0BFEFAB16B10429F461E08DE0C1
:100B40000E94B00179C0FE0184918330F9F048F42D
:100B50008130B9F08230A1F584B5806284BDC8BC13
:100B60006BC08730E9F0883019F1843049F5809105
:100B70008000806280938000B0928B00A0928A00F7
:100B80005BC084B5806884BDC7BC56C080918000BE
:100B9000806880938000B0928900A09288004CC049
:100BA0008091B00080688093B000C092B30044C0D0
:100BB0008091B00080628093B000C092B4003CC0CD
:100BC000F0E8AF16B1040CF0B9CFB2CF8A3861F5B6
:100BD000E091DC01F091DD01F093C101E093C001EF
:100BE0008093C2011093C7018091E1018093C501F8
:100BF0008091E4018093C8018091E2018093C60155
:100C00008091DF018093C3018091E0018093C40152
:100C1000808182504AE050E0823018F46AE070E04F
:100C200007C065E070E004C049E150E061E070E0B9
:100C30008DE090E00E946D020E94A60118CE1092F5
:100C4000E6011092E5011092E8011092E301109282
:100C5000E4011092E1011092DE011092DF01109286
:100C6000E0011092E2010ECEEE0FFF1F0590F4910D
:100C7000E02D099481E090E0F8940C943F06F894FC
:020C8000FFCFA4
:100C8200000000003D01A600D50084010601E40039
:0A0C9200F800000000005B026B0296
:00000001FF
