:100000000C945D000C9485000C9485000C94850084
:100010000C9485000C9485000C9485000C9485004C
:100020000C9485000C9485000C9485000C9485003C
:100030000C9485000C9485000C9485000C9485002C
:100040000C9446030C9485000C9414030C94EE025B
:100050000C9485000C9485000C9485000C9485000C
:100060000C9485000C94850000000008000201003B
:100070000003040700000000000000000000000072
:10008000250028002B0000000000240027002A0083
:10009000040404040404040402020202020203032E
:1000A0000303030301020408102040800102040836
:1000B0001020010204081020900311241FBECFEF6E
:1000C000D8E0DEBFCDBF11E0A0E0B1E0EAEBFCE09C
:1000D00002C005900D92A232B107D9F722E0A2E248
:1000E000B1E001C01D92A736B207E1F710E0CDE5FF
:1000F000D0E004C02197FE010E945006CC35D10704
:10010000C9F70E94FF030C945B060C94000090E07A
:10011000FC01EC55FF4F2491FC01E057FF4F849107
:10012000882399F090E0880F991FFC01EA57FF4F50
:10013000A591B491FC01E458FF4F859194918FB73C
:10014000F894EC91E22BEC938FBF0895A091650297
:10015000B0916602ED91FC9111970190F081E02D34
:10016000682FCD010994CF93662371F093E8980F1F
:10017000923020F0982F9D7F913131F4C82F8DE778
:100180000E94A60080E28C27CF910C94A600CF920B
:10019000DF92EF92FF920F931F93CF93DF936C0147
:1001A0007A018B01C0E0D0E0CE15DF0589F0D801DF
:1001B0006D918D01D601ED91FC910190F081E02DC2
:1001C000C6010995892B11F47E0102C02196ECCF5E
:1001D000C701DF91CF911F910F91FF90EF90DF90BA
:1001E000CF900895089580E090E00895FC01538D2C
:1001F000448D252F30E0842F90E0821B930B541701
:1002000010F0CF96089501970895FC01918D828D8D
:10021000981761F0828DDF01A80FB11D5D968C915A
:10022000928D9F5F9F73928F90E008958FEF9FEF65
:100230000895FC01918D828D981731F0828DE80F21
:10024000F11D858D90E008958FEF9FEF0895FC01DB
:10025000918D228D892F90E0805C9F4F821B9109A8
:100260008F73992708958DE291E00E94270121E084
:10027000892B09F420E0822F0895FC01848DDF0191
:10028000A80FB11DA35ABF4F2C91848D90E0019609
:100290008F739927848FA689B7892C93A089B189F8
:1002A0008C9180648C93938D848D981306C0028802
:1002B000F389E02D80818F7D80830895EF92FF92F6
:1002C0000F931F93CF93DF93EC0181E0888F9B8D79
:1002D0008C8D981305C0E889F989808185FD24C03B
:1002E000F62E0B8D10E00F5F1F4F0F731127E02EBE
:1002F0008C8DE8120CC00FB607FCFACFE889F9899B
:10030000808185FFF5CFCE010E943D01F1CF8B8D1D
:10031000FE01E80FF11DE35AFF4FF0820B8FEA89CF
:10032000FB898081806207C0EE89FF896083E8894C
:10033000F98980818064808381E090E0DF91CF91B2
:100340001F910F91FF90EF900895CF93DF93EC01F1
:10035000888D8823C9F0EA89FB89808185FD05C0E5
:10036000A889B9898C9186FD0FC00FB607FCF5CF1F
:10037000808185FFF2CFA889B9898C9185FFEDCF67
:10038000CE010E943D01E7CFDF91CF91089580E03B
:1003900090E0892B29F00E94330181110C94000018
:1003A000089590E0FC01E859FF4F3491FC01EC55B1
:1003B000FF4F2491FC01E057FF4FE491EE2309F435
:1003C0003BC0332339F1333091F038F43130A9F0A8
:1003D000323001F584B58F7D12C0373091F038305E
:1003E000A1F03430B9F4809180008F7D03C08091FA
:1003F00080008F77809380000DC084B58F7784BD97
:1004000009C08091B0008F7703C08091B0008F7DCC
:100410008093B000F0E0EE0FFF1FE458FF4FA5916E
:10042000B4918FB7F894EC91611103C020952E23FD
:1004300001C02E2B2C938FBF08953FB7F894809165
:10044000230190912401A0912501B091260126B5A8
:10045000A89B05C02F3F19F00196A11DB11D3FBFFC
:10046000BA2FA92F982F8827820F911DA11DB11D8A
:10047000BC01CD0142E0660F771F881F991F4A9586
:10048000D1F708958F929F92AF92BF92CF92DF9251
:10049000EF92FF926B017C010E941D024B015C01F7
:1004A000C114D104E104F104F1F00E941D02DC0149
:1004B000CB0188199909AA09BB09883E9340A10577
:1004C000B10570F321E0C21AD108E108F10888EE05
:1004D000880E83E0981EA11CB11CC114D104E10454
:1004E000F10419F7DDCFFF90EF90DF90CF90BF9030
:1004F000AF909F908F900895FC018681845F08954E
:10050000FC01611102C082850895613011F481857A
:100510000895623011F480850895633011F4878165
:100520000895643011F486850895653011F4858549
:100530000895663011F484850895673011F4838539
:100540000895683011F480890895693011F4878521
:1005500008956A3011F4818908956B3011F482890D
:1005600008950480F581E02DE60FF11D3C97808110
:100570000895BF92CF92DF92EF92FF920F931F9355
:10058000CF93DF93B82E8B01C0E0D0E06A01550F06
:10059000EE08FF08C017D107ACF461E08B2D0E9474
:1005A000D101C701B6010E94420260E08B2D0E947A
:1005B000D1012196C017D1076CF7C701B6010E947F
:1005C0004202E8CFDF91CF911F910F91FF90EF9002
:1005D000DF90CF90BF9008950E9456061F920F9211
:1005E0000FB60F9211242F933F934F935F936F9306
:1005F0007F938F939F93AF93BF93EF93FF938DE27E
:1006000091E00E943D01FF91EF91BF91AF919F91C9
:100610008F917F916F915F914F913F912F910F90AB
:100620000FBE0F901F9018951F920F920FB60F924A
:1006300011242F938F939F93EF93FF93E0913D01AC
:10064000F0913E018081E0914301F091440182FDEF
:1006500012C09081809146018F5F8F732091470176
:10066000821751F0E0914601F0E0E35DFE4F958F77
:100670008093460101C08081FF91EF919F918F91FE
:100680002F910F900FBE0F901F9018951F920F92F1
:100690000FB60F9211242F933F938F939F93AF9395
:1006A000BF938091270190912801A0912901B091D9
:1006B0002A013091220123E0230F2D3720F40196E7
:1006C000A11DB11D05C026E8230F0296A11DB11D75
:1006D000209322018093270190932801A093290160
:1006E000B0932A018091230190912401A0912501CA
:1006F000B09126010196A11DB11D80932301909315
:100700002401A0932501B0932601BF91AF919F9141
:100710008F913F912F910F900FBE0F901F901895C2
:10072000CF93DF93EDE2F1E01382128288EE93E043
:10073000A0E0B0E084839583A683B7838CE091E04A
:100740009183808385EC90E09587848784EC90E0AA
:100750009787868780EC90E0918B808B81EC90E08E
:10076000938B828B82EC90E0958B848B86EC90E06F
:10077000978B868B118E128E138E148EA9EEB1E09C
:100780001A961C921A9719961C9219971C961C92ED
:100790001C971D961C921D9717961C9217971896DA
:1007A0001C92189715961C92159787EF91E08D93E0
:1007B0009C93F0936602E0936502C6EDD1E080E180
:1007C0008A8381E08B8384ED91E09D838C8382E03A
:1007D0008E838EE191E09983888388E0E0E0F1E008
:1007E000ADEDB1E001900D928A95E1F78EEF9FEFAC
:1007F000988B8F87198A1A8ADF91CF910895789400
:1008000084B5826084BD84B5816084BD85B5826015
:1008100085BD85B5816085BD80916E0081608093C6
:100820006E0010928100809181008260809381002F
:10083000809181008160809381008091800081603F
:10084000809380008091B10084608093B10080919A
:10085000B00081608093B00080917A0084608093C2
:100860007A0080917A00826080937A0080917A0089
:10087000816080937A0080917A00806880937A000A
:100880001092C1008DE00E9487008DE00E948700D9
:10089000E0913D01F0913E0182E08083E0913901D9
:1008A000F0913A011082E0913B01F0913C018FEC14
:1008B000808310924501E0914101F091420186E070
:1008C0008083E0913F01F0914001808180618083CD
:1008D000E0913F01F0914001808188608083E09148
:1008E0003F01F0914001808180688083E0913F0169
:1008F000F091400180818F7D80838DE291E0909323
:10090000660280936502C0E2D2E013E004E085E471
:1009100080937C0080917A00806480937A0080913B
:100920007A0086FDFCCF809178002091790090E0DC
:10093000922B90932C0180932B019093D401809360
:10094000D5018EE70E94A600E091D601F091D70173
:100950000280F381E02D86ED91E00995F82EE0917B
:10096000D601F091D7010280F381E02D86ED91E070
:100970000995E82E2F2D30E02E5F3F4F61E0832F49
:100980000E94B30061E082E08E0D0E94B30061E03E
:100990008091D8010E94B30061E08091D9010E944A
:1009A000B300F090D8018091D901F80EC12CD12C60
:1009B000E091D601F091D7010280F381E02D86ED20
:1009C00091E0099590E0C816D906F4F4E091D601BB
:1009D000F091D7010190F081E02D6C2D86ED91E032
:1009E000099561E00E94B300E091D601F091D70132
:1009F0000190F081E02D6C2D86ED91E00995F80EC7
:100A00002FEFC21AD20AD4CF61E08F2D80950E94B9
:100A1000B30044E650E061E070E08DE090E00E94B9
:100A2000B9028FB7F894C0902701D0902801E090C8
:100A30002901F0902A018FBFBB24B3942FB7F894FB
:100A40008091270190912801A0912901B0912A015C
:100A50002FBF8C199D09843F91400CF0DAC0809122
:100A6000F0018111C1C08091F1018111BDC002C0AE
:100A7000B092F2018091650290916602DC01ED91E5
:100A8000FC910084F185E02D0995892B09F4A2C021
:100A90008091650290916602DC01ED91FC910284E7
:100AA000F385E02D09958093F4019091F30199234A
:100AB00011F18E3719F41093F1018CC08D37D9F4F0
:100AC0008091650290916602DC01ED91FC910084B9
:100AD000F185E02D0995892B59F28091650290915D
:100AE0006602DC01ED91FC910284F385E02D09950D
:100AF0008C278093F4018091F201882339F0809152
:100B0000F4018C278093F4011092F2018091F3019B
:100B1000833038F02091F4019091F501920F909379
:100B2000F5018130A1F058F08230C1F08330E9F452
:100B30008091F4018093EB010093F3019BCF8091AE
:100B4000F4018E3709F096CFB092F30193CF8091E4
:100B5000F4018093EC01D093F3018CCF8091F401E8
:100B60008093ED011093F30185CF8F3618F0D09369
:100B7000F10130C0282F30E04091ED0150E04D5F91
:100B80005F4F24173507A9F49091F5019F3F49F471
:100B90009091F4019093EE01B092F0011092F10166
:100BA00002C0B092F10184508093EF011092F301E2
:100BB00011C08091F401E091E901F091EA012E0F5A
:100BC0003F1FF901349780838091F3018F5F8093F9
:100BD000F30150CF8091F001811130C08091F1017B
:100BE000882309F42BCF15C01092F3011092F20163
:100BF0001092F5011092F0011092F1011092EE01A5
:100C00001092EB011092EC011092ED011092EF01A5
:100C100031CF8091F101811108C042E350E062E0E0
:100C200070E08DE090E00E94B90268EE73E080E031
:100C300090E00E9442020E94C70169CE8091EB01C0
:100C40008B3899F7E091E901F091EA01F093CB013B
:100C5000E093CA018093CC0181E08093D10180911F
:100C6000EE018093CF018091F1018093D2018091B8
:100C7000EF018093D0018091EC018093CD018091B0
:100C8000ED018093CE018481811105C042E350E0E3
:100C900065E070E0C6CF44EF51E063E070E0C1CFA3
:100CA000EE0FFF1F0590F491E02D099481E090E094
:0A0CB000F8940C945B06F894FFCF53
:100CBA0000A213003E585641000000005E01C70022
:100CCA00F600A501270105011901000000008002B4
:020CDA007C029A
:00000001FF
